:1000000000000120190200000102000003020000AC
:1000100005020000070200000902000000000000C5
:100020000000000000000000000000000B020000C3
:100030000D020000000000000F020000110200008D
:1000400013020000130200001D1100001302000043
:10005000130200001302000013020000130200004C
:10006000130200001302000013020000130200003C
:10007000130200001302000013020000130200002C
:10008000130200001302000013020000130200001C
:10009000130200001302000013020000130200000C
:1000A00013020000130200001302000013020000FC
:1000B0001302000013020000000000000000000016
:1000C00013020000130200001302000013020000DC
:1000D00013020000130200001302000000000000E1
:1000E0000000000000000000000000000000000010
:1000F0000000000000000000000000000000000000
:1001000000000000000000000000000000000000EF
:1001100000000000000000000000000000000000DF
:1001200000000000000000000000000000000000CF
:1001300000000000000000000000000000000000BF
:1001400000000000000000000000000000000000AF
:10015000000000000000000000000000000000009F
:10016000000000000000000000000000000000008F
:10017000000000000000000000000000000000007F
:10018000000000000000000000000000000000006F
:10019000000000000000000000000000000000005F
:1001A000000000000000000000000000000000004F
:1001B000000000000000000000000000000000003F
:1001C000000000000000000000000000000000002F
:1001D000000000000000000000000000000000001F
:1001E000000000000000000000000000000000000F
:1001F00000000000000000000000000000000000FF
:10020000FEE7FEE7FEE7FEE7FEE7FEE7FEE7FEE7C6
:10021000FEE7FEE700F002B8FFF7FCBF0F484FF023
:100220000701884385460E4880470E48016841F41F
:1002300070010160BFF34F8FBFF36F8F00F01AB8EA
:1002400009480A490A4A884207D0521A05D0037859
:1002500001300B700131013AF9D1704700000120E3
:10026000E50C000088ED00E0C8320000000000202E
:1002700000000020344935480A1A02D00722914371
:100280008D46334933480A1A06D00722914381F339
:100290000988022282F314882F483049304A00F03E
:1002A00041F830483049314A00F03CF83048314993
:1002B000314A00F037F831483149324A00F032F81B
:1002C00031483249324A00F02DF832483249334A37
:1002D00000F028F832483349334A00F023F8334815
:1002E0003349002200F029F832483349002200F057
:1002F00024F832483249091A02F0DCFF314A9047AB
:100300001F482049884205D00268043003B4904752
:1003100003BCF7E700208646EC46002000212A4A6D
:100320009047FEE7884207D0521A05D00378013083
:100330000B700131013AF9D17047884202D0027046
:100340000130FAE7704700000000012000E00020C3
:1003500000000120000001205836000000000020AD
:1003600018000020CC030000CC030000C8320000BD
:10037000583600000000002000000020C8320000B5
:10038000C8320000C8320000C8320000C832000085
:10039000C8320000C8320000C832000055360000E4
:1003A00070360000180000201800002018000020FF
:1003B000D0010020D0010020D0010020D001002079
:0C03C000D021002041020000D903000001
:1003CC0082B0019000BF02B07047000030B58FB012
:1003DC00012000F0E1F9214B06AC1D460FCD0FC4F6
:1003EC0095E8030084E803001D4B029380230393DC
:1003FC001C4B04938023059302A906A807231A4AD1
:10040C0002F0AEFD0D900D9B0C930C9B002B04D0B9
:10041C00164A2E210C9802F09BFB154800F02EF882
:10042C0000BF0DF10703184602F02AFE0346002B0D
:10043C00F7D19DF80730742B05D100F066F90D4803
:10044C0000F01CF8ECE79DF807306B2BE8D100F0BE
:10045C0049F9094800F012F8E2E700BF5C330000EC
:10046C001800002098000020CD030000C8320000C6
:10047C0014330000343300004833000000B585B05D
:10048C00019000230393002303930DE000BF019A16
:10049C00039B13441B78184602F02CFE0346002BDA
:1004AC00F5D1039B01330393019802F0CDFE024674
:1004BC00039B9342EAD300BF00BF05B05DF804FB79
:1004CC0000B583B00190019B1B68184600F0B5F88D
:1004DC000346002B04D105494FF4F67002F09DFE43
:1004EC004FF0A043184603B05DF804FB74330000D2
:1004FC0000B585B00190084611461A4603468DF8A2
:10050C0003300B468DF8023013468DF8013001ABE9
:10051C001846FFF7D5FF03909DF803209DF8023095
:10052C005B001A439DF801309B001A439DF818306C
:10053C001B0242EA03019DF81C301B04019A19436B
:10054C00039B02F5E07243F8221000BF05B05DF882
:10055C0004FB00B585B003900023019300230093A6
:10056C000023012201210398FFF7C2FF00BF05B051
:10057C005DF804FB00B585B003900B468DF80B308D
:10058C009DF80B30002201920022009200220021E3
:10059C000398FFF7ADFF00BF05B05DF804FB00B595
:1005AC0085B0019001AB1846FFF78AFF0390019BC1
:1005BC00012202FA03F31946039800F02AF800BF4F
:1005CC0005B05DF804FB00B585B0019001AB184691
:1005DC00FFF776FF0390019B012202FA03F3194601
:1005EC00039800F020F800BF05B05DF804FB00B5DF
:1005FC0083B001900091009B002B03D10198FFF771
:10060C00E2FF02E00198FFF7CAFF00BF03B05DF8FC
:10061C0004FB82B001900091019B009AC3F808255D
:10062C0000BF02B0704782B001900091019B009A0C
:10063C00C3F80C2500BF02B0704784B00190019B39
:10064C005B09029300230393029B002B03D14FF011
:10065C00FF33039300BF019B03F01F030193039A25
:10066C00019B22FA03F303F00103002B14BF0123B7
:10067C000023DBB2184604B07047000000B583B00D
:10068C000190019B032B03D90749412002F0C5FDC2
:10069C00064A019B13441B7800211846FFF7A7FF5D
:1006AC0000BF03B05DF804FBA4330000E43300008A
:1006BC0000B583B00190019B032B03D90749472058
:1006CC0002F0ABFD064A019B13441B78012118462E
:1006DC00FFF78DFF00BF03B05DF804FBA4330000EF
:1006EC00E433000000B583B00023019305E00198CA
:1006FC00FFF7DEFF019B01330193019B032BF6D91E
:10070C0000BF00BF03B05DF804FB00B583B000234D
:10071C00019305E00198FFF7B1FF019B01330193B1
:10072C00019B032BF6D900BF00BF03B05DF804FB9F
:10073C0000B583B00023019309E0094A019B1344DF
:10074C001B781846FFF705FF019B01330193019BB2
:10075C00032BF2D9FFF7C6FF00BF03B05DF804FB13
:10076C00E433000000B583B0002301930AE0094A8A
:10077C00019B13441B7803211846FFF7FBFE019BDA
:10078C0001330193019B032BF1D900BF00BF03B0D0
:10079C005DF804FBE833000000B583B00190019BC9
:1007AC0003F00103002B01D0FFF7C2FF019B03F004
:1007BC000203002B01D0FFF7D5FF00BF03B05DF89B
:1007CC0004FB0000BFF34F8F00BF064BDB6803F444
:1007DC00E0620449044B1343CB60BFF34F8F00BF5F
:1007EC0000BFFDE700ED00E00400FA0582B01B4BF2
:1007FC001B68B3F1FF3F0AD1194B1B68DBB20193A5
:10080C00184B1B681B0903F00F03009305E0134BF7
:10081C001B680193144B1B680093019B062B19D189
:10082C00009B033B032B13D801A252F823F000BF0B
:10083C004D08000051080000550800005908000040
:10084C00012308E0012306E0012304E0012302E078
:10085C00012300E00023184602B07047300100105D
:10086C00E00F00F0E80F00F03401001082B0154BDF
:10087C001B68DBB20193144B1B681B0903F00F03BD
:10088C000093019B062B19D1009B033B032B13D820
:10089C0001A252F823F000BFB5080000B90800000F
:1008AC00BD080000C1080000012308E0002306E099
:1008BC00002304E0002302E0002300E0002318469C
:1008CC0002B07047E00F00F0E80F00F082B01B4B55
:1008DC001B68B3F1FF3F0AD1194B1B68DBB20193C4
:1008EC00184B1B681B0903F00F03009305E0134B17
:1008FC001B680193144B1B680093019B062B19D1A9
:10090C00009B033B032B13D801A252F823F000BF2A
:10091C002D090000310900003509000039090000DB
:10092C00012308E0012306E0012304E0012302E097
:10093C00012300E00023184602B07047300100107C
:10094C00E00F00F0E80F00F03401001082B0154BFE
:10095C001B68DBB20193144B1B681B0903F00F03DC
:10096C000093019B062B19D1009B033B032B13D83F
:10097C0001A252F823F000BF95090000990900006C
:10098C009D090000A1090000012308E0002306E0F6
:10099C00002304E0002302E0002300E000231846BB
:1009AC0002B07047E00F00F0E80F00F082B01B4B74
:1009BC001B68B3F1FF3F0AD1194B1B68DBB20193E3
:1009CC00184B1B681B0903F00F03009305E0134B36
:1009DC001B680193144B1B680093019B062B19D1C8
:1009EC00009B033B032B13D801A252F823F000BF4A
:1009FC000D0A0000110A0000150A0000190A000077
:100A0C00012308E0012306E0012304E0012302E0B6
:100A1C00012300E00023184602B07047300100109B
:100A2C00E00F00F0E80F00F03401001082B0154B1D
:100A3C001B68DBB20193144B1B681B0903F00F03FB
:100A4C000093019B062B19D1009B033B032B13D85E
:100A5C0001A252F823F000BF750A0000790A0000C9
:100A6C007D0A0000810A0000012308E0002306E053
:100A7C00002304E0002302E0002300E000231846DA
:100A8C0002B07047E00F00F0E80F00F082B0154B99
:100A9C001B68DBB20193144B1B681B0903F00F039B
:100AAC000093019B062B19D1009B033B032B13D8FE
:100ABC0001A252F823F000BFD50A0000D90A0000A9
:100ACC00DD0A0000E10A0000012308E0002306E033
:100ADC00002304E0002302E0002300E0002318467A
:100AEC0002B07047E00F00F0E80F00F082B01B4B33
:100AFC001B68B3F1FF3F0AD1194B1B68DBB20193A2
:100B0C00184B1B681B0903F00F03009305E0134BF4
:100B1C001B680193144B1B680093019B062B19D186
:100B2C00009B033B032B13D801A252F823F000BF08
:100B3C004D0B0000510B0000550B0000590B000031
:100B4C00002308E0002306E0012304E0012302E077
:100B5C00012300E00023184602B07047300100105A
:100B6C00E00F00F0E80F00F03401001082B01B4BD6
:100B7C001B68B3F1FF3F0AD1194B1B68DBB2019321
:100B8C00184B1B681B0903F00F03009305E0134B74
:100B9C001B680193144B1B680093019B062B19D106
:100BAC00009B033B032B13D801A252F823F000BF88
:100BBC00CD0B0000D10B0000D50B0000D90B0000B1
:100BCC00012308E0012306E0012304E0012302E0F5
:100BDC00012300E00023184602B0704730010010DA
:100BEC00E00F00F0E80F00F03401001082B01B4B56
:100BFC001B68B3F1FF3F0AD1194B1B68DBB20193A1
:100C0C00184B1B681B0903F00F03009305E0134BF3
:100C1C001B680193144B1B680093019B062B19D185
:100C2C00009B033B032B13D801A252F823F000BF07
:100C3C004D0C0000510C0000550C0000590C00002C
:100C4C00012308E0012306E0012304E0012302E074
:100C5C00012300E00023184602B070473001001059
:100C6C00E00F00F0E80F00F03401001082B0134BDD
:100C7C001B680193124B1B680093019B062B19D127
:100C8C00009B033B032B13D801A252F823F000BFA7
:100C9C00AD0C0000B10C0000B50C0000B90C00004C
:100CAC00002308E0002306E0002304E0012302E017
:100CBC00012300E00023184602B0704730010010F9
:100CCC0034010010024B034A1A6000BF704700BF8A
:100CDC00000000200090D00308B5FFF787FD034605
:100CEC00002B06D0A04B1B681B0AA04A03F01F0365
:100CFC001360FFF7BBFD0346002B02D09C4B9D4AB3
:100D0C001A60FFF7E3FD0346002B06D09A4B1B68D5
:100D1C005B0B9A4A03F007031360FFF717FE0346B9
:100D2C00002B05D0964BDB68954A23F08073D3607B
:100D3C00FFF73CFE0346002B0ED04FF08043002201
:100D4C00C3F80C214FF080430022C3F810214FF060
:100D5C0080430022C3F83825FFF768FE0346002BBA
:100D6C0002D0884B03221A60FFF790FE0346002B3B
:100D7C000BD0854B05221A60844B01221A60844BE0
:100D8C0000221A60834B3F221A60FFF7AFFE034626
:100D9C00002B76D04FF080537F4AD3F80434C2F83E
:100DAC0020354FF080537C4AD3F80834C2F82435F0
:100DBC004FF08053784AD3F80C34C2F828354FF0F2
:100DCC008053754AD3F81034C2F82C354FF0805349
:100DDC00714AD3F81434C2F830354FF080536E4A50
:100DEC00D3F81834C2F834354FF080536A4AD3F82C
:100DFC001C34C2F840354FF08053674AD3F8203486
:100E0C00C2F844354FF08053634AD3F82434C2F807
:100E1C0048354FF08053604AD3F82834C2F84C352B
:100E2C004FF080535C4AD3F82C34C2F850354FF055
:100E3C008053594AD3F83034C2F854354FF08053AC
:100E4C00554AD3F83434C2F860354FF08053524AC7
:100E5C00D3F83834C2F864354FF080534E4AD3F887
:100E6C003C34C2F868354FF080534B4AD3F84034C9
:100E7C00C2F86C354FF08053474AD3F84434C2F86B
:100E8C007035FFF773FE0346002B05D0434B1B68F0
:100E9C00434A03F04F031360FFF7A8FE0346002BF1
:100EAC000DD04FF08043D3F8003403F00103002B36
:100EBC0005D04FF080436FF00102C3F80024FFF718
:100ECC00D5FE0346002B05D0364B1B68354A43F440
:100EDC0080631360344BD3F88830334A43F4700387
:100EEC00C2F88830BFF34F8F00BFBFF36F8F00BFC6
:100EFC004FF01023D3F80032002B05DB4FF01023FA
:100F0C00D3F80432002B2BDA284B0122C3F804252A
:100F1C0000BF264BD3F80034002BFAD04FF010232F
:100F2C001522C3F8002200BF204BD3F80034002B4D
:100F3C00FAD04FF010231522C3F8042200BF1B4B2C
:100F4C00D3F80034002BFAD0184B0022C3F8042538
:100F5C0000BF164BD3F80034002BFAD0FFF732FC4D
:100F6C00FFF7B0FE00BF08BD240300104035014060
:100F7C0074C007400DF0ADBA440200103C050040AF
:100F8C00F0ED00E0A00500401056004088560040EF
:100F9C00185600401456004000C000405802001083
:100FAC00E40E00403C17004000ED00E000E0014082
:100FBC0000B589B001900091009B0793019B1B78B1
:100FCC008DF80C30019B5B680493019B9B68DBB232
:100FDC008DF81430019BDB680693074A079B52F887
:100FEC0023300649079A51F8221003AA1046984755
:100FFC0000BF09B05DF804FB180100201C010020A3
:10100C0000B589B001900091009B0793019B1B7860
:10101C008DF80C30019B5B680493019B9B68DBB2E1
:10102C008DF81430019BDB680693074A079B52F836
:10103C0023300649079A51F8221003AA1046984704
:10104C0000BF09B05DF804FB180100201C01002052
:10105C0030B58FB0039002910192039B1B780C93D7
:10106C0026490C9B019A41F82320029B1A692449BA
:10107C000C9B41F82320029B5B7F1946214A0C9B59
:10108C0013440A461A70029B04AC1D460FCD0FC4C4
:10109C0095E80F0084E80F000C9B089300230D9338
:1010AC00039B1B781A46174B9B5C002B0DD0039BA4
:1010BC00181D019B002B01D0134A00E0002204AB49
:1010CC00194601F09BF90D9014E0039B1B781A460E
:1010DC000C4B9B5C002B0DD1039B03F10C00019B73
:1010EC00002B01D0094A00E0002204AB194600F0A5
:1010FC00EDFA0D900D9B18460FB030BD1801002075
:10110C001C01002020010020BD0F00000D1000006C
:10111C0008B5064B1B68002B03D10549512002F082
:10112C007CF8024B1B68984708BD00BF24010020C7
:10113C00EC33000082B00190019B044A934201D130
:10114C00034B00E00023184602B07047002000401B
:10115C002401002000B587B001900091019B002B69
:10116C0003D11849772002F058F80198FFF7E2FFF5
:10117C000490049B002B1ED000238DF81730002008
:10118C0002F004F8049B1B79002B03D001238DF88B
:10119C00173005E0049B009A1A60049B01221A7117
:1011AC00002002F007F89DF81730002B03D0112314
:1011BC000393039B02E000230393039B184607B0A1
:1011CC005DF804FBEC33000082B003468DF8073069
:1011DC009DF90730002B0CDB9DF8073003F01F0244
:1011EC0005499DF907305B09012000FA02F241F82C
:1011FC00232000BF02B0704700E100E082B003463C
:10120C0000918DF807309DF90730002B0ADB009B0D
:10121C00DAB20C499DF907305201D2B20B4483F873
:10122C0000230BE0009BDAB207499DF8073003F06E
:10123C000F03043B5201D2B20B441A7600BF02B02A
:10124C00704700BF00E100E000ED00E082B00190CB
:10125C00019B1B0B5BB2184602B0704700B583B004
:10126C0003460A468DF8073013468DF806309DF874
:10127C000630072B03D908496B2001F0CEFF9DF8EF
:10128C0006209DF9073011461846FFF7B7FF00BF3F
:10129C0003B05DF804FB00BF3834000000B583B028
:1012AC0003468DF807309DF907301846FFF78CFF81
:1012BC0000BF03B05DF804FB84B001900B46ADF8A1
:1012CC000230BDF80230019A134400221A60BDF8B6
:1012DC000230019A13441B680393039B00BF04B0B4
:1012EC00704782B001900B46ADF80230BDF8023069
:1012FC00019A13441B68002B14BF01230023DBB29B
:10130C00184602B0704782B001900091019B009A80
:10131C00C3F8042300BF02B0704782B00190009163
:10132C00019BD3F80423009B1340002B14BF012313
:10133C000023DBB2184602B0704782B001900091D6
:10134C00019B009AC3F8082300BF02B0704784B019
:10135C000190019BD3F880340393019B039AC3F84B
:10136C008024039B184604B0704782B00190019B07
:10137C000422C3F8002500BF02B0704784B003906C
:10138C0002910192039B019AC3F81425039B029AC4
:10139C00C3F80C2500BF04B0704784B003900291D1
:1013AC000192039B029AC3F80825039B019AC3F888
:1013BC00102500BF04B0704782B00190019BD3F898
:1013CC001835DBB2184602B0704782B001900B465C
:1013DC008DF803309DF80320019BC3F81C2500BF3A
:1013EC0002B0704782B001900B468DF803309DF827
:1013FC000330019A134401221A6000BF02B07047F7
:10140C0082B001900B468DF8033013468DF80230F4
:10141C009DF803209DF802301343DBB21A46019B62
:10142C00C3F86C2500BF02B0704782B001900091E8
:10143C00019B009AC3F8242500BF02B0704700003E
:10144C0000B583B00190019B1B68184600F085F82D
:10145C000346002B04D105494FF4F67001F0DDFE74
:10146C004FF0A043184603B05DF804FB683400004D
:10147C0000B585B00190084611461A4603468DF812
:10148C0003300B468DF8023013468DF8013001AB5A
:10149C001846FFF7D5FF03909DF803209DF8023006
:1014AC005B001A439DF801309B001A439DF81830DD
:1014BC001B0242EA03019DF81C301B04019A1943DC
:1014CC00039B02F5E07243F8221000BF05B05DF8F3
:1014DC0004FB00B585B00390002301930023009317
:1014EC000023012201210398FFF7C2FF00BF05B0C2
:1014FC005DF804FB00B585B003900B468DF80B30FE
:10150C009DF80B3000220192002200920022002153
:10151C000398FFF7ADFF00BF05B05DF804FB00B505
:10152C0085B0019001AB1846FFF78AFF0390019B31
:10153C00012202FA03F31946039800F004F800BFE5
:10154C0005B05DF804FB82B001900091019B009AFC
:10155C00C3F8082500BF02B0704784B00190019B0E
:10156C005B09029300230393029B002B03D14FF0E2
:10157C00FF33039300BF019B03F01F030193039AF6
:10158C00019B22FA03F303F00103002B14BF012388
:10159C000023DBB2184604B0704700B583B001904D
:1015AC000091009B1B68B3F1FF3F09D0009B1B68A7
:1015BC001846FFF7B4FF009B1B681846FFF789FF1E
:1015CC00009B5B68B3F1FF3F05D0009B5B6800217B
:1015DC001846FFF78FFF019B1A68009B9B69194601
:1015EC001046FFF722FF019B1868009B597D009B5A
:1015FC001B7D1A46FFF704FF019B1868009B1968B6
:10160C00009B5B681A46FFF7B9FE009B1B7D012B04
:10161C0022D1009B9B68B3F1FF3F05D0009B9B68D8
:10162C0000211846FFF766FF009BDB68B3F1FF3F14
:10163C0009D0009BDB681846FFF771FF009BDB6845
:10164C001846FFF746FF019B1868009BD968009B62
:10165C009B681A46FFF7A1FE00BF03B05DF804FBC0
:10166C0000B583B001900B468DF80330019B1B68CD
:10167C004FF48E711846FFF71FFE019B1B684FF449
:10168C00A2711846FFF718FE019B1B680E491846FD
:10169C00FFF739FE019B1B681846FFF7D7FD034681
:1016AC001A469DF8033019461046FFF7D7FD019BEB
:1016BC001B681846FFF7CAFD03461846FFF7EEFDF8
:1016CC0000BF03B05DF804FB8000020000B587B0DA
:1016DC00039002910192029B002B03D12D49AA2069
:1016EC0001F09BFD039B1B791A462C2302FB03F391
:1016FC00294A1344059300230493059B93F82A303D
:10170C00002B03D008230493049B3EE0039B1A6830
:10171C00039B1B791946214B53F82130194610466F
:10172C00FFF718FD0346002B03D011230493049BF1
:10173C002BE002990398FFF730FF059B019A5A6042
:10174C00029B1A69059B1A60059B5B68002B05D0F0
:10175C00029B1B7F19460398FFF782FF039B1B68B4
:10176C001846FFF702FE059B00229A61059B00229A
:10177C00DA61059B002283F82920059B00225A611F
:10178C00059B012283F82A20049B184607B05DF8BC
:10179C0004FB00BF983400002C010020E034000052
:1017AC0000B585B0019000914FF48E710198FFF750
:1017BC0083FD009B9A68009B1B6A13441B788DF871
:1017CC000F30009B1B6A5A1C009B1A629DF80F304D
:1017DC0019460198FFF7F9FD00BF05B05DF804FB51
:1017EC0000B585B001900091009B5B69039316E0F6
:1017FC00009B93F82830DBB2002B01D0002314E0BF
:10180C004FF48E710198FFF76CFD034683F00103D2
:10181C00DBB2002BECD100990198FFF7C1FF009BC4
:10182C001B6A039A9A42EBD80123184605B05DF85F
:10183C0004FB000000B587B0039002910192039B5A
:10184C001B791A462C2302FB03F33C4A13440493E2
:10185C00049B93F82A30012B04D039494FF48C7037
:10186C0001F0DBFC029B002B04D1354940F219102E
:10187C0001F0D3FC019B002B04D131494FF48D7046
:10188C0001F0CBFC039800F05DF80346002B03D06D
:10189C0011230593059B4CE0049B019A5A61049B10
:1018AC00029A9A60049B00221A62049B002283F81D
:1018BC00282000230593039B1B684FF48E71184658
:1018CC00FFF7FAFC039B1B6808211846FFF78AFDFB
:1018DC00039B1B6804991846FFF762FF049B5B6827
:1018EC00002B25D1039B1B6804991846FFF778FF42
:1018FC00034683F00103DBB2002B02D00F230593C8
:10190C0013E000BF039B1B684FF48E711846FFF762
:10191C00E8FC034683F00103DBB2002BF2D1039BFE
:10192C001B680C211846FFF75DFD049B00225A61D1
:10193C00059B184607B05DF804FB00BF2C01002086
:10194C009834000082B00190019B1B791946074A1C
:10195C002C2301FB03F3134414331B68002B14BF1B
:10196C0001230023DBB2184602B070472C01002083
:10197C0000B583B00190019B1B684FF4927118461F
:10198C00FFF79AFC019B1B684FF484711846FFF714
:10199C0093FC019B1B6800211846FFF723FD00BF39
:1019AC0003B05DF804FB10B582B001900091009B70
:1019BC009B69002B08D14FF484710198FFF77CFCD4
:1019CC000198FFF7F9FC13E04FF484710198FFF7CD
:1019DC0073FC009BDA68009B5B6AD4180198FFF7D4
:1019EC00EBFC03462370009B5B6A5A1C009B5A62FB
:1019FC0002B010BD00B589B0039002910192039B17
:101A0C001B791A462C2302FB03F37F4A13440693DB
:101A1C00039B1B7919467C4A2C2301FB03F31344CB
:101A2C002A331B78012B04D078494FF4B67001F09F
:101A3C00F4FB029B002B04D1744940F26D1001F0B1
:101A4C00ECFB019B002B04D170494FF4B77001F0F3
:101A5C00E4FB00238DF81F30069B5B68002B06D03F
:101A6C00039B1B684FF401711846FFF766FC069B3D
:101A7C009B69002B15D0069BDB69002B0ED0069BB7
:101A8C005B68002B06D0039B1B684FF40171184652
:101A9C00FFF739FC11230593059BB0E001238DF86A
:101AAC001F309DF81F3083F00103DBB2002B0CD0EC
:101ABC00069B019A9A61069B029ADA60069B0022A9
:101ACC005A62069B0022DA6105E0069B029A1A61B3
:101ADC00069B019ADA61069B93F8293083F0010387
:101AEC00DBB2002B09D09DF81F3083F00103DBB271
:101AFC00002B02D00398FFF73BFF069B5B68002B83
:101B0C0073D1039B1B684FF4A2711846FFF7D4FBEB
:101B1C00039B1B684FF492711846FFF7E2FB0346D8
:101B2C008DF81330039B1B684FF484711846FFF734
:101B3C00D8FB03468DF81230039B1B684FF4A2713F
:101B4C001846FFF7CEFB03468DF811309DF8123086
:101B5C0083F00103DBB2002B0DD09DF8113083F024
:101B6C000103DBB2002B06D09DF8133083F0010388
:101B7C00DBB2002BCCD19DF81330002B0FD19DF88C
:101B8C001130002B0BD1039B1B6806991846FFF7ED
:101B9C000AFF069B9A69069B5B6A9A42B8D8069B19
:101BAC0000229A619DF81330002B03D00323059378
:101BBC00059B24E09DF81130002B03D00F230593D7
:101BCC00059B1CE0069B93F82930002B06D0039B49
:101BDC001B6800211846FFF705FC0DE0039B1B68F2
:101BEC0004211846FFF7FEFB06E0039B1B684FF42D
:101BFC0001711846FFF787FB00230593059B1846D8
:101C0C0009B05DF804FB00BF2C01002098340000E3
:101C1C0000B589B003900291019201238DF8103028
:101C2C00029B0693019B0593039B5B68039A1168C7
:101C3C0004AA1046984700BF09B05DF804FB00B534
:101C4C0087B00190009100238DF80830009B04931D
:101C5C00019B9B680393019B00225A61019B5B686B
:101C6C00019A116802AA1046984700BF07B05DF8A8
:101C7C0004FB00B58BB0019000914FF400710198FA
:101C8C00FFF74BFB0346002B39D04FF492710198B0
:101C9C00FFF727FB0346002B31D04FF492710198CC
:101CAC00FFF70AFB4FF401710198FFF746FB009B0D
:101CBC0093F8293083F00103DBB2002B03D004210D
:101CCC000198FFF78FFB02238DF80C300198FFF77A
:101CDC003EFB03460693009B9B690593009BDB68C8
:101CEC000493009B00229A61009B0022DA61009B06
:101CFC005B68009A116803AA1046984752E00421C9
:101D0C000198FFF70AFB0346002B4BD04FF484716C
:101D1C000198FFF7E6FA0346002B43D0009901988F
:101D2C00FFF741FE009B9A69009B5B6A9A4239D18E
:101D3C00009BDB69002B19D0009BDB680993009B8F
:101D4C005B6A0893009BDA69009B9A61009B1A6995
:101D5C00009BDA60009B0022DA61009B00225A6231
:101D6C00099A08990098FFF753FF1BE0009B93F822
:101D7C00293083F00103DBB2002B03D0042101983E
:101D8C00FFF730FB4FF401710198FFF7D6FA009B77
:101D9C0000229A61009B596A009BDB681A460098E6
:101DAC00FFF736FF4FF48E710198FFF79AFA03464E
:101DBC00002B24D0009B5B690793009B1B6A079A3E
:101DCC009A420DD9009B93F82830DBB283F00103C3
:101DDC00DBB2002B04D000990198FFF7E1FC0EE078
:101DEC004FF48E710198FFF767FA009B5B69002B2B
:101DFC0005D0009B5B6919460098FFF720FF4FF454
:101E0C00A2710198FFF76DFA0346002B1CD04FF41A
:101E1C00A2710198FFF750FA009B93F82930002B20
:101E2C0003D000210198FFF7DDFA009B9B69002B82
:101E3C000AD0009B00229A61009B596A009BDB68C8
:101E4C001A460098FFF7E4FE00BF0BB05DF804FBE8
:101E5C0008B503490348FFF70CFF00BF08BD00BFDE
:101E6C002C0100200020004082B003468DF8073082
:101E7C009DF90730002B0CDB9DF8073003F01F0297
:101E8C0005499DF907305B09012000FA02F241F87F
:101E9C00232000BF02B0704700E100E082B003468F
:101EAC0000918DF807309DF90730002B0ADB009B61
:101EBC00DAB20C499DF907305201D2B20B4483F8C7
:101ECC0000230BE0009BDAB207499DF8073003F0C2
:101EDC000F03043B5201D2B20B441A7600BF02B07E
:101EEC00704700BF00E100E000ED00E082B001901F
:101EFC00019B03F06043B3F1005F0CBF012300238F
:101F0C00DBB2184602B0704782B00190019B1B0BEC
:101F1C005BB2184602B0704700B583B003460A4660
:101F2C008DF8073013468DF806309DF80630072BD8
:101F3C0003D908496B2001F070F99DF806209DF932
:101F4C00073011461846FFF7A9FF00BF03B05DF834
:101F5C0004FB00BFE434000000B583B003468DF8E9
:101F6C0007309DF907301846FFF77EFF00BF03B01E
:101F7C005DF804FB84B001900B46ADF80230BDF85F
:101F8C000230019A134400221A60BDF80230019A03
:101F9C0013441B680393039B00BF04B0704782B0CB
:101FAC0001900B46ADF80230BDF80230019A134493
:101FBC001B68002B14BF01230023DBB2184602B0B0
:101FCC00704782B001900091019BD3F80022009BD6
:101FDC001A43019BC3F8002200BF02B0704782B0C5
:101FEC0001900091019BD3F80022009BDB431A4027
:101FFC00019BC3F8002200BF02B0704782B0019071
:10200C000091019B009AC3F8042300BF02B07047F3
:10201C0082B001900091019B009AC3F8082300BF85
:10202C0002B0704784B00190019BD3F880340393C5
:10203C00019B039AC3F88024039B184604B0704795
:10204C0082B00190019B0822C3F8002500BF02B0AA
:10205C00704784B0039002910192039B029AC3F8DB
:10206C000C25039B019AC3F8142500BF04B07047DC
:10207C0084B0039002910192039B029AC3F8082545
:10208C00039B019AC3F8102500BF04B0704782B0BF
:10209C0001900B468DF803309DF80330019A1344E0
:1020AC0001221A6000BF02B0704782B001900B464B
:1020BC008DF8033013468DF802309DF803209DF8FF
:1020CC0002301343DBB21A46019BC3F86C2500BFE8
:1020DC0002B0704782B001900091019B009AC3F846
:1020EC00242500BF02B0704784B003900291019286
:1020FC00029A039BC3F84425039B019AC3F8482515
:10210C0000BF04B0704782B00190019BD3F84C35EE
:10211C00184602B0704784B0039002910192029A63
:10212C00039BC3F83425039B019AC3F8382500BFE1
:10213C0004B0704782B00190019BD3F83C3518462F
:10214C0002B0704700B583B00190019B1B68184624
:10215C0000F085F80346002B04D105494FF4F670C6
:10216C0001F05BF84FF0A043184603B05DF804FB98
:10217C001435000000B585B00190084611461A468A
:10218C0003468DF803300B468DF8023013468DF85C
:10219C00013001AB1846FFF7D5FF03909DF80320E3
:1021AC009DF802305B001A439DF801309B001A43E6
:1021BC009DF818301B0242EA03019DF81C301B04E9
:1021CC00019A1943039B02F5E07243F8221000BFF9
:1021DC0005B05DF804FB00B585B0039000230193B6
:1021EC00002300930023012201210398FFF7C2FF73
:1021FC0000BF05B05DF804FB00B585B003900B463D
:10220C008DF80B309DF80B300022019200220092C9
:10221C00002200210398FFF7ADFF00BF05B05DF869
:10222C0004FB00B585B0019001AB1846FFF78AFF9F
:10223C000390019B012202FA03F31946039800F064
:10224C0004F800BF05B05DF804FB82B0019000916A
:10225C00019B009AC3F8082500BF02B0704784B0F8
:10226C000190019B5B09029300230393029B002BBB
:10227C0003D14FF0FF33039300BF019B03F01F0307
:10228C000193039A019B22FA03F303F00103002B41
:10229C0014BF01230023DBB2184604B0704700B50D
:1022AC0083B001900091009B1B68B3F1FF3F09D0F4
:1022BC00009B1B681846FFF7B4FF009B1B68184671
:1022CC00FFF789FF009B5B68B3F1FF3F05D0009BD4
:1022DC005B6800211846FFF78FFF019B1A68009B73
:1022EC009B6919461046FFF7F5FE019B1868009B89
:1022FC00597D009B1B7D1A46FFF7D7FE019B186882
:10230C00009B1968009B5B681A46FFF7A2FE009BB6
:10231C001B7D012B22D1009B9B68B3F1FF3F05D0A5
:10232C00009B9B6800211846FFF766FF009BDB684B
:10233C00B3F1FF3F09D0009BDB681846FFF771FF34
:10234C00009BDB681846FFF746FF019B1868009B53
:10235C00D968009B9B681A46FFF78AFE00BF03B042
:10236C005DF804FB00B583B001900B468DF803308B
:10237C00019B1B684FF488711846FFF7FBFD019B0E
:10238C001B684FF490711846FFF7F4FD019B1B6816
:10239C004FF492711846FFF7EDFD019B1B684FF44B
:1023AC00A2711846FFF7E6FD019B1B684FF4AC7158
:1023BC001846FFF7DFFD019B1B680F491846FFF716
:1023CC001DFE019B1B681846FFF79EFD03461A462F
:1023DC009DF8033019461046FFF79EFD019B1B68C4
:1023EC001846FFF791FD03461846FFF7B5FD00BFF1
:1023FC0003B05DF804FB00BF1003420000B587B0CA
:10240C00039002910192029B002B03D12B49CF2008
:10241C0000F003FF039B1B791A461346DB001344A1
:10242C009B00274A1344059300230493059B93F8C0
:10243C002030002B03D008230493049B3AE0039B29
:10244C001A68039B1B7919461E4B53F82130194609
:10245C001046FEF77FFE0346002B03D01123049396
:10246C00049B27E002990398FFF719FF059B019A3B
:10247C005A60029B1A69059B1A60059B5B68002BCE
:10248C0005D0029B1B7F19460398FFF76BFF039B3C
:10249C001B681846FFF7D4FD059B00229A61059B2B
:1024AC000022DA61059B00225A61059B012283F808
:1024BC002020049B184607B05DF804FB443500004F
:1024CC00580100209035000000B589B003900291AE
:1024DC000192039B1B791A461346DB0013449B00A5
:1024EC00564A13440693069B93F82030012B04D0D4
:1024FC00534940F2531000F090FE029B002B04D184
:10250C004F494FF4AA7000F088FE019B002B04D1B8
:10251C004B4940F2551000F080FE039B1B79002BB9
:10252C0002D1019BFF2B04D945494FF4AB7000F04D
:10253C0074FE0298FFF7DAFC034683F00103DBB26A
:10254C00002B03D010230793079B73E0039800F034
:10255C0079F80346002B03D011230793079B69E0FE
:10256C00069B019A5A61069B029A9A600023079374
:10257C00039B1B684FF490711846FFF7FBFC039B01
:10258C001B684FF4AC711846FFF7F4FC039B1868FA
:10259C00069B9968069B5B691A46FFF7A5FD039B92
:1025AC001B6808211846FFF772FD069B5B68002B21
:1025BC003FD1039B1B684FF490711846FFF7EFFC5B
:1025CC0003468DF81730039B1B684FF4AC7118460B
:1025DC00FFF7E5FC03468DF816309DF8173083F0B5
:1025EC000103DBB2002B06D09DF8163083F00103FB
:1025FC00DBB2002BDDD19DF81630002B02D00F235F
:10260C00079313E0039B1B680C211846FFF73FFD53
:10261C0000BF039B1B684FF4AC711846FFF7BFFC5F
:10262C00034683F00103DBB2002BF2D1069B0022A0
:10263C005A61079B184609B05DF804FB580100204D
:10264C004435000082B00190019B1B791946084A61
:10265C000B46DB000B449B00134414331B68002B0C
:10266C0014BF01230023DBB2184602B0704700BF31
:10267C005801002000B589B0039002910192039B90
:10268C001B791A461346DB0013449B00864A1344FD
:10269C000593039B1B791946834A0B46DB000B44BD
:1026AC009B00134420331B78012B04D07F494FF43B
:1026BC00D37000F0B2FD029B002B04D17B4940F299
:1026CC00A71000F0AAFD019B002B04D177494FF411
:1026DC00D47000F0A2FD039B1B79002B02D1019B4F
:1026EC00FF2B04D9714940F2A91000F096FD029815
:1026FC00FFF7FCFB034683F00103DBB2002B03D096
:10270C0010230793079BCAE000238DF81B30059B11
:10271C005B68002B06D0039B1B684FF404711846B2
:10272C00FFF776FC059B9B69002B15D0059BDB699D
:10273C00002B0ED0059B5B68002B06D0039B1B68FF
:10274C004FF404711846FFF759FC11230793079BAC
:10275C00A5E001238DF81B309DF81B3083F001039D
:10276C00DBB2002B09D0059B019A9A61059B029A5A
:10277C00DA60059B0022DA6105E0059B029A1A617A
:10278C00059B019ADA6100230793039B1B684FF4A6
:10279C0088711846FFF7EEFB039B1B684FF4A27180
:1027AC001846FFF7E7FB039B1B68019A0299184632
:1027BC00FFF7B1FC9DF81B3083F00103DBB2002B5B
:1027CC0006D0039B1B6800211846FFF760FC05E050
:1027DC00039B1B6820211846FFF7F3FB039B1B7917
:1027EC001946314A0B46DB000B449B00134404335F
:1027FC001B68002B4BD1039B1B684FF48871184648
:10280C00FFF7CDFB03468DF81330039B1B684FF489
:10281C00A2711846FFF7C3FB03468DF81230039BD9
:10282C001B684FF492711846FFF7B9FB03468DF8FD
:10283C0011309DF8133083F00103DBB2002B0DD067
:10284C009DF8123083F00103DBB2002B06D09DF80B
:10285C00113083F00103DBB2002BCCD1039B1B792D
:10286C001946114A0B46DB000B449B0013441833EA
:10287C0000221A609DF81130002B01D0032307931E
:10288C009DF81230002B09D00F23079306E0039B11
:10289C001B684FF404711846FFF7B0FB079B1846F2
:1028AC0009B05DF804FB00BF58010020443500005E
:1028BC0000B589B003900291019201238DF810307C
:1028CC00029B0693019B0593039B5B68039A11681B
:1028DC0004AA1046984700BF09B05DF804FB00B588
:1028EC0087B00190009100238DF80830009B049371
:1028FC00019B9B680393019B00225A61019B5B68BF
:10290C00019A116802AA1046984700BF07B05DF8FB
:10291C0004FB00B589B0019000914FF492710198BD
:10292C00FFF73DFB0346002B22D04FF49271019828
:10293C00FFF720FB02238DF808300198FFF772FB9C
:10294C00034605930198FFF7F5FB03460493009BA0
:10295C00DB680393009B00229A61009B0022DA61E2
:10296C00009B5B68009A116802AA104698473BE0EE
:10297C004FF488710198FFF712FB0346002B33D0FC
:10298C004FF488710198FFF7F5FA0198FFF7D2FB25
:10299C000790009B9B69079A9A4225D1009BDB69A3
:1029AC00002B17D0009BDB68069320210198FFF7C2
:1029BC0016FB009BDA69009B9A61009B1A69009BCD
:1029CC00DA60009B0022DA61069A07990098FFF7FB
:1029DC006FFF09E0009B00229A61009BDB681A469E
:1029EC0007990098FFF764FF4FF4A2710198FFF765
:1029FC00D6FA0346002B18D04FF4A2710198FFF7BA
:102A0C00B9FA009B9B69002B0FD0009B00229A61A6
:102A1C00009B0022DA610198FFF78CFB0146009BBA
:102A2C00DB681A460098FFF743FF4FF4907101984A
:102A3C00FFF7B5FA0346002B14D04FF490710198B0
:102A4C00FFF798FA0C210198FFF721FB009B5B69BB
:102A5C00002B07D00198FFF756FB03461946009848
:102A6C00FFF73DFF4FF4AC710198FFF798FA03465E
:102A7C00002B10D04FF4AC710198FFF77BFA009B40
:102A8C005B69002B07D00198FFF73DFB0346194605
:102A9C000098FFF724FF00BF09B05DF804FB0000AD
:102AAC0008B503490348FFF734FF00BF08BD00BF5A
:102ABC00580100200020004086B003900291019242
:102ACC0001238DF817309DF81730204A039B1360B3
:102ADC001E4A029B53601D4A019B9360039B44F268
:102AEC000102934212D0039B44F20202934220D182
:102AFC00019B164AD360154BDB681B68134A936124
:102B0C00124BDB685B68114AD36112E0019B0F4AE0
:102B1C0013610E4B1B699B680C4A53610B4B1B6971
:102B2C001B680A4A9361094B1B695B68074AD361AE
:102B3C0000BF72B600BF00BF9DF81730DBB2002B90
:102B4C00FAD162B600BF00BF06B070477C0100200E
:102B5C0000B583B002900091019244F201007146DD
:102B6C006A4600F003F803B000BD00BF00B587B0A3
:102B7C0003900291019272B600BF039B44F20102D2
:102B8C00934207D0039B44F20202934205D1019B6E
:102B9C00059303E0019B049300E000BF074B1B6807
:102BAC0003F00103002B00D000BE019A0299039898
:102BBC00FFF782FF00BF07B05DF804FBF0ED00E00B
:102BCC0084B00190019B9B680393019BDA68039B83
:102BDC00D31A184604B0704782B001900B468DF89A
:102BEC000330019B1A68019BDB68019989880B40B3
:102BFC0013449DF803201A70019BDB685A1C019B3F
:102C0C00DA6000BF02B0704784B003900B460192AB
:102C1C00ADF80A30039B1A68039B9968BDF80A301B
:102C2C000B44039989880B4013441A78019B1A7042
:102C3C0000BF04B0704700B583B001900091009ABA
:102C4C0000210198FFF7E0FF019B9B685A1C019B38
:102C5C009A6000BF03B05DF804FB84B0039002914E
:102C6C001346ADF80630029B002B01D10E231DE05C
:102C7C00BDF80630002B07D0BDF806305A1EBDF843
:102C8C0006301340002B01D009230FE0039B029A5E
:102C9C001A60BDF80630013B9AB2039B9A80039BE5
:102CAC0000229A60039B0022DA600023184604B0CD
:102CBC00704700B583B001900B468DF80330019836
:102CCC00FFF77EFF0246019B9B889A4207D89DF82E
:102CDC00033019460198FFF77FFF002300E004231F
:102CEC00184603B05DF804FB00B583B00190009169
:102CFC000198FFF765FF0346002B05D0009901985A
:102D0C00FFF799FF002300E00523184603B05DF898
:102D1C0004FB000000B587B00390029113468DF8B8
:102D2C00073000230593039B1B781A46114B9B5CC1
:102D3C00002B09D0039B04339DF8072002991846F9
:102D4C00FFF7C2FB05900FE0039B1B781A46094B5B
:102D5C009B5C002B08D1039B0C339DF80720029938
:102D6C001846FEF767FD0590059B184607B05DF801
:102D7C0004FB00BF2001002000B585B001900023AA
:102D8C008DF80F30019B1B781A46114B9B5C002B66
:102D9C0008D0019B04331846FFF754FC03468DF80A
:102DAC000F300EE0019B1B781A46094B9B5C002BE5
:102DBC0007D1019B0C331846FEF7C4FD03468DF872
:102DCC000F309DF80F30184605B05DF804FB00BFBE
:102DDC002001002000B587B00390029113468DF8B6
:102DEC00073000230593039B1B781A46114B9B5C01
:102DFC00002B09D0039B04339DF807200299184639
:102E0C00FFF738FC05900FE0039B1B781A46094B23
:102E1C009B5C002B08D1039B0C339DF80720029977
:102E2C001846FEF7E7FD0590059B184607B05DF8C0
:102E3C0004FB00BF2001002084B00190019B9B6823
:102E4C000393019BDA68039BD31A184604B07047AE
:102E5C0000B587B001900091019B1B78022B45D0E7
:102E6C00022B6ADC002B52D0012B66D1019B1B7A02
:102E7C00002B05D1012233493348FFF7ABFF5DE04E
:102E8C00019B5B681B7819463048FFF712FF0590D1
:102E9C00059B002B0AD001238DF80C30059B049365
:102EAC002B4B1B6803AA104698470DE02748FFF7E9
:102EBC00C3FF0346002B07D000238DF80C30244BA6
:102ECC001B6803AA104698472048FFF7B5FF034636
:102EDC001E4A9288934205D801221A491A48FFF7D4
:102EEC0079FF2BE01B4B01221A7027E002238DF88F
:102EFC000C30019BDB680493012212491248FFF746
:102F0C0069FF134B1B6803AA1046984716E0124939
:102F1C001248FFF7E9FE0346002B05D101220E49AA
:102F2C000948FFF7F7FE09E003238DF80C30084B36
:102F3C001B6803AA1046984700E000BF00BF07B00B
:102F4C005DF804FBA401002004000020A80100206F
:102F5C009C010020A5010020A0010020B801002048
:102F6C0030B591B00390029101928DF803303C4A38
:102F7C00019B1360029B002B01D107236DE0029B88
:102F8C001968029B5B689BB21A463648FFF765FED0
:102F9C000F900F9B0E930E9B002B01D00E9B5CE0B1
:102FAC00029B9968029BDB689BB21A462E48FFF77E
:102FBC0054FE0F900F9B0D930D9B002B01D00D9B7E
:102FCC004BE02A4B04AC1D460FCD0FC495E80F0007
:102FDC0084E80F00039B5B690A93039B1B7C002B0B
:102FEC0014BF01230023DBB28DF824309DF803308D
:102FFC008DF82C30039B5B7C002B01D00E2300E062
:10300C0000238DF82530039BDB680693039B9B689C
:10301C000793039B1B680593039B5B68049304ABAA
:10302C00134A19461348FEF713F80F900F9B0C9395
:10303C000C9B002B01D00C9B0FE00F4B00221A7045
:10304C00039B1B68B3F1FF3F06D001220B490948D3
:10305C00FFF7C0FE034600E00023184611B030BD58
:10306C009C010020A8010020B8010020943500002C
:10307C005D2E000004000020A5010020A40100200A
:10308C0000B587B00190019B002B03D11449CA20D5
:10309C0000F0C3F8134B1B788DF8173001991248C8
:1030AC00FFF722FE04909DF81730002B12D00D4B29
:1030BC0000221A7001220D490D48FFF78BFE039078
:1030CC00039B0293029B002B04D0054AD621029845
:1030DC00FFF73EFD049B184607B05DF804FB00BFEC
:1030EC00B4350000A5010020A8010020A401002097
:1030FC000400002000B585B003468DF807309DF81C
:10310C00073019461048FFF7D4FD0390039B002BA2
:10311C0015D10E48FFF730FE034683F00103DBB2F6
:10312C00002B0CD00A490848FFF7DEFD0346002BA4
:10313C0005D1012206490548FFF7ECFD0390039BDE
:10314C00184605B05DF804FBB8010020040000200F
:10315C00A001002072B600BF034B1B680133024A6A
:10316C00136000BF704700BFC8010020064B1B68EE
:10317C00013B054A1360044B1B68002B01D162B65E
:10318C0000BF00BF704700BFC801002000B583B06E
:10319C00019000F025F80346012B03D0044943208D
:1031AC0000F03BF8FFF7D6FF00BF03B05DF804FB5F
:1031BC000436000000B583B003468DF8073000F0EC
:1031CC000FF80346012B03D00449512000F025F8D9
:1031DC00FFF7CCFF00BF03B05DF804FB0436000022
:1031EC0084B0EFF305830193019BC3F308030393AE
:1031FC00039B002B0DD1EFF314830093009B0293E0
:10320C00029B03F00103002B0CBF01230023DBB254
:10321C0000E00123184604B0704700B585B00346A2
:10322C000091ADF80630BDF806300293009B039375
:10323C0002AB1A46002144F20200FFF797FC00BFD4
:10324C0005B05DF804FB0000411C82070CD010F89F
:10325C00012B3AB3820707D010F8012B12B3820767
:10326C0002D010F8012BEAB14FF0013C50F8042BBE
:10327C00CCFA52F37BB950F8042BCCFA52F353B975
:10328C0050F8042BCCFA52F32BB950F8042BCCFA8F
:10329C0052F3002BEAD004381BBAB3FA83F300EBD9
:1032AC00D3000130401A7047072904D90023024A81
:0C32BC00C0E9003110607047CC01002018
:1032C800433A5C6E72665F73646B5C6E5246355F40
:1032D80053444B5F31372E302E325F6436373464B7
:1032E80064655C6578616D706C65735C6D7950724E
:1032F8006F6A6563745C6D7955415254202D204383
:103308006F70795C6D61696E2E63000048656C6C46
:103318006F2050432066726F6D206E6F7264696310
:103328002044657669636521210D0A004C65647344
:10333800205475726E6564204F6E21210D0A0000BD
:103348004C656473205475726E6564206F666621DF
:10335800210D0A001A0000001B000000FFFFFFFFFC
:10336800FFFFFFFF0000000000E0D7012E2E2F2EE8
:103378002E2F2E2E2F2E2E2F2E2E2F2E2E2F6D6FE0
:1033880064756C65732F6E7266782F68616C2F6E2A
:1033980072665F6770696F2E68000000433A5C6E62
:1033A80072665F73646B5C6E5246355F53444B5F65
:1033B80031372E302E325F643637346464655C638F
:1033C8006F6D706F6E656E74735C626F617264733B
:1033D8005C626F617264732E630000001112131433
:1033E8000D0E0F10433A5C6E72665F73646B5C6E11
:1033F8005246355F53444B5F31372E302E325F646F
:103408003637346464655C6D6F64756C65735C6EC7
:103418007266785C647269766572735C7372635CF9
:103428007072735C6E7266785F7072732E630000E0
:103438002E2E2F2E2E2F2E2E2F2E2E2F2E2E2F2E9F
:103448002E2F696E746567726174696F6E2F6E7264
:1034580066782F6E7266785F676C75652E680000F7
:103468002E2E2F2E2E2F2E2E2F2E2E2F2E2E2F2E6F
:103478002E2F6D6F64756C65732F6E7266782F686A
:10348800616C2F6E72665F6770696F2E680000004E
:10349800433A5C6E72665F73646B5C6E5246355F6E
:1034A80053444B5F31372E302E325F6436373464E5
:1034B80064655C6D6F64756C65735C6E7266785C70
:1034C800647269766572735C7372635C6E72667837
:1034D8005F756172742E63005D1E00002E2E2F2E04
:1034E8002E2F2E2E2F2E2E2F2E2E2F2E2E2F696E74
:1034F800746567726174696F6E2F6E7266782F6E6D
:103508007266785F676C75652E6800002E2E2F2E08
:103518002E2F2E2E2F2E2E2F2E2E2F2E2E2F6D6F3E
:1035280064756C65732F6E7266782F68616C2F6E88
:1035380072665F6770696F2E68000000433A5C6EC0
:1035480072665F73646B5C6E5246355F53444B5FC3
:1035580031372E302E325F643637346464655C6DE3
:103568006F64756C65735C6E7266785C647269769C
:103578006572735C7372635C6E7266785F75617294
:1035880074652E6300000000AD2A0000FFFFFFFFF6
:10359800FFFFFFFFFFFFFFFFFFFFFFFF000000002F
:1035A800000000000000D60106010000433A5C6EEE
:1035B80072665F73646B5C6E5246355F53444B5F53
:1035C80031372E302E325F643637346464655C637D
:1035D8006F6D706F6E656E74735C6C696272617228
:1035E8006965735C756172745C6170705F75617236
:1035F800745F6669666F2E6300000000433A5C6E74
:1036080072665F73646B5C6E5246355F53444B5F02
:1036180031372E302E325F643637346464655C632C
:103628006F6D706F6E656E74735C6C6962726172D7
:103638006965735C7574696C5C6170705F757469D9
:0D3648006C5F706C6174666F726D2E6300B4
:103658000090D0030000000000200040000000009F
:083668000020004000000000FA
:0400000300000219DE
:00000001FF
